:1000000087C00000AEC00000ACC00000AAC0000065
:10001000A8C00000A6C00000A4C00000A2C000004C
:10002000A0C000009EC00000D7C500009AC000001C
:1000300098C0000096C0000094C0000092C000006C
:1000400090C000008EC000008CC000008AC000007C
:1000500088C0000086C0000084C0000082C000008C
:1000600080C000007EC000007CC000007AC000009C
:1000700078C0000076C0000074C0000072C00000AC
:1000800070C000006EC000006CC0000008000000DE
:10009000BE922449123EABAAAA2ABECDCCCC4C3E7D
:1000A00000000080BEABAAAAAA3E00000000BF006C
:1000B0000000803F0000000000084178D3BB438768
:1000C000D1133D190E3CC3BD4282AD2B3E68EC827C
:1000D00076BED98FE1A93E4C80EFFFBE01C4FF7F01
:1000E0003F000000000007634236B79BD8A71A39CB
:1000F000685618AEBAAB558C1D3CB7CC5763BD6D76
:10010000EDFD753EF6177231BF000000803F130809
:1001100011241FBECFEFD0E1DEBFCDBF11E0A0E0C4
:10012000B1E0E0EDF9E100E00BBF02C007900D92F5
:10013000AE39B107D9F722E0AEE9B1E001C01D92B6
:10014000A636B207E1F710E0C8E8D0E004C0219776
:10015000FE010E94BC0BC738D107C9F717D70C9412
:10016000E60C4ECF019759F56F3F7F4F41F588E080
:1001700090E00E94C50B9093EB018093EA0188E028
:1001800090E00E94C50B9093E9018093E80188E01C
:1001900090E00E94C50B9093E7018093E6018CE00C
:1001A00090E00E94C50B9093E5018093E4018CE000
:1001B00090E00E94C50B9093E3018093E2010895C3
:1001C00094EA90937400909174009923E4F79091CD
:1001D0007100987F9830D9F790ED9093730094E870
:1001E00090937400909174009923E4F790917100BA
:1001F000987F9831D9F78093730084E880937400D6
:10020000809174008823E4F780917100887F8832A0
:10021000D9F784EA80937400809174008823E4F70E
:1002200080917100887F8031D9F781ED80937300D0
:1002300084E880937400809174008823E4F78091AF
:100240007100887F8034D9F784E8809374008091AE
:1002500074008823E4F780917100887F8835D9F78E
:100260008091730094E990937400089594EA9093B8
:100270007400909174009923E4F790917100987F35
:100280009830D9F790ED9093730094E890937400B0
:10029000909174009923E4F790917100987F9831C0
:1002A000D9F78093730084E8809374008091740080
:1002B0008823E4F780917100887F8832D9F76093B2
:1002C000730084E880937400809174008823E4F7BD
:1002D00080917100887F8832D9F784E98093740017
:1002E00008951F93CF93DF93EC018BE369DF8F8336
:1002F00015E3812F8A95F1F78CE362DF8E83812FDE
:100300008A95F1F78DE35CDF8987812F8A95F1F774
:100310008EE356DF8887812F8A95F1F78FE350DFD0
:100320008B87812F8A95F1F780E44ADF8A87812FB6
:100330008A95F1F783E444DF8D87812F8A95F1F761
:1003400084E43EDF8C87812F8A95F1F785E438DFDE
:100350008F87812F8A95F1F786E432DF8E87812F90
:100360008A95F1F787E42CDF898B812F8A95F1F745
:1003700088E426DF888BC12FCA95F1F7DF91CF91F2
:100380001F9108958F929F92AF92BF92CF92DF926A
:10039000EF92FF920F931F93CF93DF93EC0100E056
:1003A00010E00A3011050CF0B8C0CE019ADF8F8141
:1003B00090E0982F88272E81822B9D838C838C81BF
:1003C0009D81CAA4DBA4ECA4FDA461E070EC681BD1
:1003D000790B072E000C880B990B2FD7A7019601DC
:1003E00029D66AA77BA78CA79DA7898590E0982F1F
:1003F00088272885822B9D838C836C817D81CEA468
:10040000DFA4E8A8F9A8719561957109072E000C81
:10041000880B990B12D7A70196010CD66EA77FA760
:1004200088AB99AB8B8590E0982F88272A85822B03
:100430009D838C836C817D81CAA8DBA8ECA8FDA874
:10044000072E000C880B990BF8D6A7019601F2D560
:100450006AAB7BAB8CAB9DAB8D8590E0982F8827EA
:100460002C85822B9D838C836C817D81CEA8DFA817
:10047000E8ACF9AC072E000C880B990BDED6A7016F
:100480009601D8D56EAB7FAB88AF99AF8F8590E0E2
:10049000982F88272E85822B9D838C836C817D816C
:1004A000CAACDBACECACFDAC072E000C880B990B96
:1004B000C4D6A7019601BED56AAF7BAF8CAF9DAF06
:1004C000898990E0982F88272889822B9D838C83A7
:1004D0006C817D817E018EE3E80EF11CF701808046
:1004E0009180A280B380072E000C880B990BA5D6B3
:1004F000A50194019FD5F701608371838283938363
:1005000088EE93E0009731F0E0E9F1E03197F1F700
:100510000197F8CF0F5F1F4F44CF6AA57BA58CA52D
:100520009DA520E030E040E251E4ECD56AA77BA72E
:100530008CA79DA76EA57FA588A999A920E030E08A
:1005400040E251E4DFD56EA77FA788AB99AB6AA9DB
:100550007BA98CA99DA920E030E040E251E4D2D5EE
:100560006AAB7BAB8CAB9DAB6EA97FA988AD99AD17
:1005700020E030E040E251E4C5D56EAB7FAB88AF00
:1005800099AF6AAD7BAD8CAD9DAD20E030E040E22F
:1005900051E4B8D56AAF7BAF8CAF9DAF8E01025CE2
:1005A0001F4FF801608171818281938120E030E0EA
:1005B00040E251E4A7D5F80160837183828393837D
:1005C0008AA59BA5ACA5BDA58A8B9B8BAC8BBD8B4F
:1005D0008EA59FA5A8A9B9A98E8B9F8BA88FB98F2F
:1005E0008AA99BA9ACA9BDA98A8F9B8FAC8FBD8F0F
:1005F0008EA99FA9A8ADB9AD8E8F9F8FA8A3B9A3CF
:100600008AAD9BADACADBDAD8AA39BA3ACA3BDA38E
:1006100080819181A281B3818EA39FA3A8A7B9A74E
:10062000DF91CF911F910F91FF90EF90DF90CF90CE
:10063000BF90AF909F908F9008955D9BFECF8CB937
:1006400008950F931F93CF93DF93EC0160E177E25E
:100650000E94950B08EE13E0B8010E94950B80E311
:10066000860FEBDFCE01B8010E94950B04E610E087
:10067000B8010E94950B80E3860FDFDFCE01B80141
:100680000E94950B0AE010E0B8010E94950B80E3F0
:10069000860FD3DFCE01B8010E94950B805DCDDFC0
:1006A000DF91CF911F910F910895EF92FF920F93D9
:1006B0001F93CF93DF93EC017901798368836F5F98
:1006C0007F4F8B01000F111F000F111FC8010E94E7
:1006D000C50B9D838C83C8010E94C50B9F838E83AD
:1006E000FD82EC82DF91CF911F910F91FF90EF90EF
:1006F0000895CF92DF92EF92FF920F931F93CF93C3
:10070000DF93EC0180E090E0288139818217930724
:10071000D4F4AE81BF81FC01EE0FFF1FEE0FFF1F6F
:10072000EA0FFB1F01969C01220F331F220F331F7C
:10073000A20FB31F0D911D912D913C910083118348
:1007400022833383E1CFEE81FF81220F331F220FFB
:10075000331FE20FF31F408351836283738300E0F2
:1007600010E0C12CD12C7601488159819A012F5F6C
:100770003F4F021713073CF5EC81FD819801220FD2
:10078000331F220F331FE20FF31F608171818281BB
:100790009381EE81FF819A01201B310B220F331FC1
:1007A000220F331FE20FF31F2081318142815381D9
:1007B00065D69B01AC01C701B6013CD46B017C013D
:1007C0000F5F1F4FD1CFC701B601DF91CF911F91AE
:1007D0000F91FF90EF90DF90CF900895CF92DF922E
:1007E000EF92FF920F931F93CF93DF93EC01690178
:1007F000798368836F5F7F4F7B01EE0CFF1CEE0CEB
:10080000FF1CC701C2D79D838C83C701BED79F83BE
:100810008E83C701BAD799878887C701B6D79B87C8
:100820008A87DD82CC821F830E83DF91CF911F9157
:100830000F91FF90EF90DF90CF9008954F925F92CD
:100840006F927F928F929F92AF92BF92CF92DF92E0
:10085000EF92FF920F931F93CF93DF938C016A0166
:100860007B0180E090E0D8012D913C911197821797
:10087000930794F518962D913C911997BC01660F3A
:10088000771F660F771FD901A60FB71F0196FC01CE
:10089000EE0FFF1FEE0FFF1FE901CE0FDF1F888055
:1008A0009980AA80BB808D929D92AD92BC92139745
:1008B000D8011A962D913C911B97D901A60FB71F0D
:1008C000E20FF31F80809180A280B3808D929D9271
:1008D000AD92BC921397C7CFD8011896ED91FC91B9
:1008E0001997220F331F220F331FE20FF31FC0820D
:1008F000D182E282F382E12CF12CF801C081D18116
:10090000CE010196E816F9060CF052C0A284B38419
:100910004E01880C991C880C991C8A0C9B1C068023
:10092000F781E02D6701CC0CDD1CCC0CDD1CEC0D3F
:10093000FD1D6081718182819381D8011896ED91AE
:10094000FC911997CE19DF09CC0FDD1FCC0FDD1FED
:10095000EC0FFD1F20813181428153818FD52B0106
:100960003C01F80184819581FC01EC0DFD1D608145
:10097000718182819381CA0DDB1D288139814A8171
:100980005B817CD59B01AC01C301B20152D39B01B9
:10099000AC01D4016D917D918D919C914BD3F4016B
:1009A0006083718382839383FFEFEF1AFF0AA5CFE1
:1009B00082859385CC0FDD1FCC0FDD1FC80FD91F9B
:1009C000688179818A819B81DF91CF911F910F91FD
:1009D000FF90EF90DF90CF90BF90AF909F908F905F
:1009E0007F906F905F904F90089517B886B18064A4
:1009F00086B9349BFECF64B175B1072E000C880B0D
:100A0000990B1BC4089581E087B986B1806486B9CB
:100A1000349BFECF64B175B1072E000C880B990B87
:100A20000CC4089585E087B986B1806486B9349B8B
:100A3000FECF64B175B1072E000C880B990BFDC376
:100A4000089584E087B986B1806486B9349BFECF6F
:100A500064B175B1072E000C880B990BEEC3089595
:100A600087E087B986B1806486B9349BFECF64B1D4
:100A700075B1072E000C880B990BDFC3089520E099
:100A800030E040EA50E4FAD420E030EC4FE754E4A0
:100A900039D320E030E044EB53E4F0D420E030E000
:100AA00040EA50E42FC320E030E040EA50E4E6D4CE
:100AB00020E030EC4FE754E425D39B01AC0160E02B
:100AC00078E987EB96E41ED320E030EE42E955E466
:100AD000B0D294D42AE034E94DE351E4AAD29B0188
:100AE000AC0160E070E080E89FE3A3D29B01AC0121
:100AF00060E070E080E291E424C5089520E030E0F9
:100B000040EA50E4BBD420E030EC4FE754E4FAD2A2
:100B100020E030E040E85EE3B1D420E030E048EC93
:100B200052E4ACC420E030E040EA50E4A7D420E036
:100B300030EC4FE754E4E6D22DED34E246E95FEBCA
:100B400000D52DE637EE4FEE51E498C420E030ECAE
:100B50004FE754E4D7D22BE734E14EE25EE3CED246
:100B6000882324F460E070E0CB01089560E070E039
:100B700080E89FE30895CF92DF92EF92FF9220E00A
:100B800030E044EB52E4BED220E030E040E05FE3EE
:100B900051D220E030E040EA51E4B4D220E030E02D
:100BA00048EC52E46BD420E030E048EC52E4AAD2A6
:100BB0006B017C0166B577B580E090E03CD3A7017E
:100BC00096015CD407D37BBD6ABD8AB59BB5FF9007
:100BD000EF90DF90CF9008951F920F920FB60F9273
:100BE00011240BB60F92CF92DF92EF92FF920F93E8
:100BF0001F932F933F934F935F936F937F938F93A5
:100C00009F93AF93BF93EF93FF9360910601709111
:100C100007018091080190910901ADDF8091A00149
:100C20009091A101892B09F042C026E831E043E010
:100C300050E065E070E08091EA019091EB0135DDD4
:100C40002AE531E043E050E06AE070E08091E8019D
:100C50009091E9012ADD22E431E043E050E065E0D3
:100C600070E08091E6019091E7011FDD0AE211E05A
:100C700026E331E043E050E062E070E08091E4017F
:100C80009091E501ABDD0AE011E02AE131E042E0BC
:100C900050E063E070E08091E2019091E3019EDD1D
:100CA00081E090E09093A1018093A001F9C0809130
:100CB000A2019091A30101969093A3018093A201B8
:100CC0008436910531F481E090E090939F01809308
:100CD0009E018BDE6093DE017093DF018093E00163
:100CE0009093E10190DE6093DA017093DB018093D1
:100CF000DC019093DD0196DE6093D6017093D701FD
:100D00008093D8019093D9019CDE6093D2017093B7
:100D1000D3018093D4019093D501A2DE6093CE01DC
:100D20007093CF018093D0019093D1014091DE0167
:100D30005091DF016091E0017091E1018091EA0141
:100D40009091EB01D6DC6093CA017093CB01809344
:100D5000CC019093CD014091DA015091DB0160917B
:100D6000DC017091DD018091E8019091E901C1DC25
:100D70006093C6017093C7018093C8019093C90125
:100D80004091D6015091D7016091D8017091D9015D
:100D90008091E6019091E701ACDC6093C201709311
:100DA000C3018093C4019093C5014091D201509139
:100DB000D3016091D4017091D5018091E4019091AB
:100DC000E5013CDD6093BE017093BF018093C001DB
:100DD0009093C1014091CE015091CF016091D0011B
:100DE0007091D1018091E2019091E30127DD6B01C7
:100DF0007C016093BA017093BB018093BC01909316
:100E0000BD016091CA017091CB018091CC0190919C
:100E1000CD0135DE6093B6017093B7018093B801C0
:100E20009093B9016091C6017091C7018091C8018A
:100E30009091C90138DE6093B2017093B301809341
:100E4000B4019093B5016091C2017091C30180918A
:100E5000C4019091C50152DE6093AE017093AF0161
:100E60008093B0019093B1016091BE017091BF0178
:100E70008091C0019091C10155DE6093AA017093E9
:100E8000AB018093AC019093AD01C701B6015EDE6A
:100E90006093A6017093A7018093A8019093A90184
:100EA0006091A4017091A5016F5F7F4F7093A501C0
:100EB0006093A401072E000C880B990BBED120E093
:100EC00030E040EA50E41AD1811145C01092A501EA
:100ED0001092A4016091B6017091B7018091B801A0
:100EE0009091B90177D1CB01ACDB80E2A6DB6091B8
:100EF000B2017091B3018091B4019091B5016AD1B2
:100F0000CB019FDB80E299DB6091AE017091AF0174
:100F10008091B0019091B1015DD1CB0192DB80E273
:100F20008CDB6091AA017091AB018091AC01909132
:100F3000AD0150D1CB0185DB80E27FDB6091A60162
:100F40007091A7018091A8019091A90143D1CB0193
:100F500078DB8DE072DB83E684BDFF91EF91BF917A
:100F6000AF919F918F917F916F915F914F913F9141
:100F70002F911F910F91FF90EF90DF90CF900F90E6
:100F80000BBE0F900FBE0F901F90189580EE87BB81
:100F900083E084BB11BA88E382B91092610081E0DA
:100FA00085BB1BB888E08AB986E0809395001092D3
:100FB000900087E689B984E0809374008CE0809388
:100FC000700060E08BE652D980EA9FE00197F1F76C
:100FD00065E08AE14BD98CEE91E0D4D98DEE85BDE8
:100FE00083E684BD80E487BF3AEA3FBD2BE12EBD96
:100FF00010927A0087E893E197BD86BD1DBC1CBCAA
:1010000030938B0020938A0010928C009093810083
:1010100080938000109289001092880017B887E8AA
:1010200086B97894FFCF6FEF7FEF81E090E09AC8A8
:1010300008955058BB27AA270ED09AC18BD130F003
:1010400090D120F031F49F3F11F41EF45BC10EF4F7
:10105000E095E7FB51C1E92F9CD180F3BA176207F5
:1010600073078407950718F071F49EF5B4C10EF468
:10107000E0950B2EBA2FA02D0B01B90190010C01A8
:10108000CA01A0011124FF27591B99F0593F50F4C0
:10109000503E68F11A16F040A22F232F342F442718
:1010A000585FF3CF469537952795A795F040539510
:1010B000C9F77EF41F16BA0B620B730B840BBAF0E0
:1010C0009150A1F0FF0FBB1F661F771F881FC2F74B
:1010D0000EC0BA0F621F731F841F48F4879577955F
:1010E0006795B795F7959E3F08F0B3CF9395880F16
:1010F00008F09927EE0F979587950895D9D008F4B1
:1011000081E008950CD034C12CD140F023D130F0CF
:1011100021F45F3F19F0F0C051115EC1F3C039D125
:1011200098F39923C9F35523B1F3951B550BBB27AE
:10113000AA2762177307840738F09F5F5F4F220F5B
:10114000331F441FAA1FA9F333D00E2E3AF0E0E854
:1011500030D091505040E695001CCAF729D0FE2FA0
:1011600027D0660F771F881FBB1F26173707480732
:10117000AB07B0E809F0BB0B802DBF01FF279358E8
:101180005F4F2AF09E3F510568F0B6C025C15F3F12
:10119000ECF3983EDCF3869577956795B795F795D0
:1011A0009F5FC9F7880F911D9695879597F90895C8
:1011B000E1E0660F771F881FBB1F62177307840764
:1011C000BA0720F0621B730B840BBA0BEE1F88F773
:1011D000E095089504D06894B111FEC00895E1D05F
:1011E00088F09F5790F0B92F9927B751A0F0D1F010
:1011F000660F771F881F991F1AF0BA95C9F712C09A
:10120000B13081F0E8D0B1E00895E5C0672F782FC4
:101210008827B85F39F0B93FCCF386957795679505
:10122000B395D9F73EF490958095709561957F4F71
:101230008F4F9F4F0895E89409C097FB3EF4909517
:101240008095709561957F4F8F4F9F4F9923A9F09F
:10125000F92F96E9BB279395F6958795779567952E
:10126000B795F111F8CFFAF4BB0F11F460FF1BC072
:101270006F5F7F4F8F4F9F4F16C0882311F096E905
:1012800011C0772321F09EE8872F762F05C06623B3
:1012900071F096E8862F70E060E02AF09A95660F6C
:1012A000771F881FDAF7880F9695879597F9089525
:1012B000990F0008550FAA0BE0E8FEEF1616170667
:1012C000E807F907C0F012161306E407F50798F0CF
:1012D000621B730B840B950B39F40A2661F0232BE8
:1012E000242B252B21F408950A2609F4A140A69564
:1012F0008FEF811D811D089597F99F6780E870E049
:1013000060E008959FEF80EC0895DF93CF931F93E3
:101310000F93FF92EF92DF927B018C01689405C0DE
:10132000DA2EEF01B7D0FE01E894A5912591359111
:1013300045915591AEF3EF018EDEFE019701A801B4
:10134000DA9479F7DF90EF90FF900F911F91CF9192
:10135000DF91089500240A94161617061806090648
:10136000089500240A94121613061406050608951B
:10137000092E0394000C11F4882352F0BB0F40F4A3
:10138000BF2B11F460FF04C06F5F7F4F8F4F9F4FE3
:10139000089557FD9058440F551F59F05F3F71F065
:1013A0004795880F97FB991F61F09F3F79F08795CC
:1013B0000895121613061406551FF2CF4695F1DF55
:1013C00008C0161617061806991FF1CF86957105E5
:1013D000610508940895E894BB2766277727CB0119
:1013E00097F908959B01AC0160E070E080E89FE30D
:1013F00089CE0EF023C186CF68947ECFD2DFC8F3AA
:101400009923D1F3C6F3DF93CF931F930F93FF92EA
:10141000C92FDD2788232AF02197660F771F881FA1
:10142000DAF720E030E040E85FEB9FE3883920F016
:10143000803E30F021968F77FDDDECE8F0E003C0D0
:10144000F9DDE9EBF0E061DF8B01BE01EC01FB2E81
:101450006F5771097595771F880B990BEEDE28E1A0
:1014600032E741E35FE316D0AF2D9801AE01FF9064
:101470000F911F91CF91DF91EEDD7ACF0BD078CF16
:1014800069DF28F06EDF18F0952309F035CF3ACFE9
:101490001124A2CF7EDFA0F3959FD1F3950F50E0EA
:1014A000551F629FF001729FBB27F00DB11D639F16
:1014B000AA27F00DB11DAA1F649F6627B00DA11DBC
:1014C000661F829F2227B00DA11D621F739FB00D62
:1014D000A11D621F839FA00D611D221F749F3327D2
:1014E000A00D611D231F849F600D211D822F762F6B
:1014F0006A2F11249F5750408AF0E1F088234AF068
:10150000EE0FFF1FBB1F661F771F881F91505040B3
:10151000A9F79E3F510570F0EFCE5ECF5F3FECF331
:10152000983EDCF3869577956795B795F795E7959F
:101530009F5FC1F7FE2B880F911D9695879597F9B0
:101540000895FA01EE0FFF1F30962105310599F13C
:101550006115710561F48038BFE39B0749F1689418
:101560009038810561F08038BFEF9B0741F09923E7
:1015700042F5FF3FE1053105210511F1E89408949A
:10158000E795D901AA2329F4AB2FBE2FF85FD0F33A
:1015900010C0FF5F70F4A695E0F7F73950F019F02E
:1015A000FF3A38F49F779F930CD00F9007FC905828
:1015B00008953EF0A7CE60E070E080E89FE30895D4
:1015C0004FE79F775F934F933F932F9317DF2F91B1
:1015D0003F914F915F9152DF05C019F40EF08CCE10
:1015E000FACE90CEDEDEC8F39638C0F707F80F9239
:1015F000E8942BE33AEA48EB5FE74EDF0F920F9255
:101600000F924DB75EB70F925DD0E6EEF0E07DDE53
:101610004F915F91EF91FF91E595EE1FFF1F49F00C
:10162000FE57E0684427EE0F441FFA95E1F7419515
:10163000550B14D00F9007FED5CE08959F3F31F083
:10164000915020F4879577956795B795880F911DF0
:101650009695879597F908954FCEF0CFA2DEE8F3DF
:101660009923D9F3940F511DBBF39150504094F03E
:1016700059F0882332F0660F771F881F9150504031
:10168000C1F79E3F510544F7880F911D96958795A8
:1016900097F908955F3FACF0983E9CF0BB27869584
:1016A00077956795B79508F4B1609395C1F7BB0F2F
:1016B00058F711F460FFE8CF6F5F7F4F8F4F9F4F58
:1016C000E3CF8ACEFA01DC01AA0FBB1F9B01AC015C
:1016D000BF5728F422273327442750781FC0B7511B
:1016E00088F4AB2F0024469537952795011CA395C8
:1016F000D2F3002069F0220F331F441FB395DAF3B1
:101700000DD097CC61307105A0E88A07B94630F456
:101710009B01AC016627772788279078309621F0C7
:101720002083318342835383089597FB072E16F459
:10173000009406D077FD08D00BD007FC05D03EF40E
:10174000909581959F4F0895709561957F4F08956D
:10175000AA1BBB1B51E107C0AA1FBB1FA617B707D7
:1017600010F0A61BB70B881F991F5A95A9F78095F3
:101770009095BC01CD010895EE0FFF1F0024001CC1
:101780000BBE0790F691E02D09940F931F93CF9312
:10179000DF938230910510F482E090E0E0916402E2
:1017A000F091650220E030E0A0E0B0E0309719F160
:1017B000408151810281138148175907C8F084176D
:1017C000950769F4109731F012960C9312971396BF
:1017D0001C9327C0009364021093650222C0211558
:1017E000310519F04217530718F49A01BD01EF01B2
:1017F000DF01F801DBCF21153105F9F0281B390B8A
:101800002430310580F48A819B816115710521F0B6
:10181000FB019383828304C09093650280936402EA
:10182000FE01329644C0FE01E20FF31F81939193B3
:1018300022503109398328833AC0209162023091C5
:101840006302232B41F42091020130910301309374
:101850006302209362022091000130910101211561
:10186000310541F42DB73EB7409104015091050177
:10187000241B350BE0916202F0916302E217F3073B
:10188000A0F42E1B3F0B2817390778F0AC014E5FF0
:101890005F4F2417350748F04E0F5F1F50936302C8
:1018A000409362028193919302C0E0E0F0E0CF01A7
:1018B000DF91CF911F910F910895CF93DF93009700
:1018C00009F481C0FC01329713821282A091640254
:1018D000B0916502109781F420813181820F931FAE
:1018E00020916202309163022817390751F5F09375
:1018F0006302E093620267C0ED0120E030E0CE17A2
:10190000DF0740F44A815B819E0141155105F1F0EA
:10191000EA01F5CFD383C28340815181840F951FA3
:10192000C817D90759F488819981840F951F0296A9
:10193000918380838A819B819383828321153105E2
:1019400029F4F0936502E09364023DC0E901FB8352
:10195000EA8349915991C40FD51FEC17FD0761F433
:1019600080819181840F951F0296E9019983888374
:10197000828193819B838A83E0E0F0E012968D91CF
:101980009C911397009719F0FD01DC01F7CF8D9121
:101990009C9111979D012E5F3F4F820F931F2091C5
:1019A0006202309163022817390769F4309729F4ED
:1019B000109265021092640202C013821282B093E8
:1019C0006302A0936202DF91CF910895F894FFCF54
:1019D0000000660220000000B44283C04A3D992AFC
:1019E000183E992A183E83C04A3D0000803F24B922
:1019F00094BF8126323F711B0DBE143F063E143F3B
:101A0000863E143F063E0000803FD26F3FBFCC5D54
:101A10008B3E0000000038F8C23DF241CF3EF2415B
:101A2000CF3E38F8C23D00000000C364AABB6F126D
:101A300003BCAC8B5B3C3E79D83DA245763E524917
:101A40009D3EA245763E3E79D83DAC8B5B3C6F1205
:101A500003BCC364AABB0000000038F8C23DF241D9
:0E1A6000CF3EF241CF3E38F8C23D00000000FC
:00000001FF
